{
  "transactions": [
    {
      "hash": "0x79e6ce99552fb9b4cf3dea029f58aad51786598887c06e70edad0ac7ad87cf1f",
      "transactionType": "CALL",
      "contractName": null,
      "contractAddress": "0xf32a3225869f494ce90c07bea755a24aa2182479",
      "function": "setKYCLevel(address,uint256)",
      "arguments": [
        "0xDeC5c2afdd05A34712381781a4dEbDf5b4F70e94",
        "2"
      ],
      "transaction": {
        "from": "0xc1951ef408265a3b90d07b0be030e63ccc7da6c6",
        "to": "0xf32a3225869f494ce90c07bea755a24aa2182479",
        "gas": "0xfb8e",
        "value": "0x0",
        "input": "0x0c6b4b4f000000000000000000000000dec5c2afdd05a34712381781a4debdf5b4f70e940000000000000000000000000000000000000000000000000000000000000002",
        "nonce": "0x2e4",
        "chainId": "0x6545"
      },
      "additionalContracts": [],
      "isFixedGasLimit": false
    }
  ],
  "receipts": [
    {
      "status": "0x1",
      "cumulativeGasUsed": "0xa3cd",
      "logs": [],
      "logsBloom": "0x00000000000000000000000000000000000000000000000000000000000000000000000000000000000000000000000000000000000000000000000000000000000000000000000000000000000000000000000000000000000000000000000000000000000000000000000000000000000000000000000000000000000000000000000000000000000000000000000000000000000000000000000000000000000000000000000000000000000000000000000000000000000000000000000000000000000000000000000000000000000000000000000000000000000000000000000000000000000000000000000000000000000000000000000000000000",
      "type": "0x0",
      "transactionHash": "0x79e6ce99552fb9b4cf3dea029f58aad51786598887c06e70edad0ac7ad87cf1f",
      "transactionIndex": "0x0",
      "blockHash": "0xf5e1bf42dc62cd029ebde4c19a40b67c6f3f702802e85a9f0c1313fcfabea0ca",
      "blockNumber": "0x137bfda",
      "gasUsed": "0xa3cd",
      "effectiveGasPrice": "0x5d21dba00",
      "from": "0xc1951ef408265a3b90d07b0be030e63ccc7da6c6",
      "to": "0xf32a3225869f494ce90c07bea755a24aa2182479",
      "contractAddress": null
    }
  ],
  "libraries": [],
  "pending": [],
  "returns": {},
  "timestamp": 1735103756,
  "chain": 25925,
  "commit": "d62ddc2"
}