{
  "transactions": [
    {
      "hash": "0x8ffe3f246552d943ce9efefd627fd96029f7fa8da520bb2be35310f51c33e4d8",
      "transactionType": "CALL",
      "contractName": null,
      "contractAddress": "0xf32a3225869f494ce90c07bea755a24aa2182479",
      "function": "setKYCLevel(address,uint256)",
      "arguments": [
        "0x2Da1bC2AE2F97E6d38050d1c750A646dd85fDDBE",
        "2"
      ],
      "transaction": {
        "from": "0xc1951ef408265a3b90d07b0be030e63ccc7da6c6",
        "to": "0xf32a3225869f494ce90c07bea755a24aa2182479",
        "gas": "0x8235",
        "value": "0x0",
        "input": "0x0c6b4b4f0000000000000000000000002da1bc2ae2f97e6d38050d1c750a646dd85fddbe0000000000000000000000000000000000000000000000000000000000000002",
        "nonce": "0xceb",
        "chainId": "0x6545"
      },
      "additionalContracts": [],
      "isFixedGasLimit": false
    }
  ],
  "receipts": [
    {
      "status": "0x1",
      "cumulativeGasUsed": "0x58cd",
      "logs": [],
      "logsBloom": "0x00000000000000000000000000000000000000000000000000000000000000000000000000000000000000000000000000000000000000000000000000000000000000000000000000000000000000000000000000000000000000000000000000000000000000000000000000000000000000000000000000000000000000000000000000000000000000000000000000000000000000000000000000000000000000000000000000000000000000000000000000000000000000000000000000000000000000000000000000000000000000000000000000000000000000000000000000000000000000000000000000000000000000000000000000000000",
      "type": "0x0",
      "transactionHash": "0x8ffe3f246552d943ce9efefd627fd96029f7fa8da520bb2be35310f51c33e4d8",
      "transactionIndex": "0x0",
      "blockHash": "0x5d18ea266458d74287c27e7ea3bb3e1cd030794b660bb7941fd7389c5a57af7e",
      "blockNumber": "0x148918f",
      "gasUsed": "0x58cd",
      "effectiveGasPrice": "0x5d21dba00",
      "from": "0xc1951ef408265a3b90d07b0be030e63ccc7da6c6",
      "to": "0xf32a3225869f494ce90c07bea755a24aa2182479",
      "contractAddress": null
    }
  ],
  "libraries": [],
  "pending": [],
  "returns": {},
  "timestamp": 1740615072,
  "chain": 25925,
  "commit": "41006ed"
}