{
  "transactions": [
    {
      "hash": "0x5a3c7abf6a3985f6018cb70502ef061400f2cc8a25146975245d249a6184bdd7",
      "transactionType": "CALL",
      "contractName": null,
      "contractAddress": "0xf32a3225869f494ce90c07bea755a24aa2182479",
      "function": "setKYCLevel(address,uint256)",
      "arguments": [
        "0xfB9a3dBe054B6c3C9c8B38ccDF35F369c05459fA",
        "2"
      ],
      "transaction": {
        "from": "0xc1951ef408265a3b90d07b0be030e63ccc7da6c6",
        "to": "0xf32a3225869f494ce90c07bea755a24aa2182479",
        "gas": "0xfb8e",
        "value": "0x0",
        "input": "0x0c6b4b4f000000000000000000000000fb9a3dbe054b6c3c9c8b38ccdf35f369c05459fa0000000000000000000000000000000000000000000000000000000000000002",
        "nonce": "0x302",
        "chainId": "0x6545"
      },
      "additionalContracts": [],
      "isFixedGasLimit": false
    }
  ],
  "receipts": [
    {
      "status": "0x1",
      "cumulativeGasUsed": "0xa3cd",
      "logs": [],
      "logsBloom": "0x00000000000000000000000000000000000000000000000000000000000000000000000000000000000000000000000000000000000000000000000000000000000000000000000000000000000000000000000000000000000000000000000000000000000000000000000000000000000000000000000000000000000000000000000000000000000000000000000000000000000000000000000000000000000000000000000000000000000000000000000000000000000000000000000000000000000000000000000000000000000000000000000000000000000000000000000000000000000000000000000000000000000000000000000000000000",
      "type": "0x0",
      "transactionHash": "0x5a3c7abf6a3985f6018cb70502ef061400f2cc8a25146975245d249a6184bdd7",
      "transactionIndex": "0x0",
      "blockHash": "0xca562d22af9277e675477d9362de2aabd8eed5ab71ccd6902902f903fb2cba9c",
      "blockNumber": "0x13801de",
      "gasUsed": "0xa3cd",
      "effectiveGasPrice": "0x5d21dba00",
      "from": "0xc1951ef408265a3b90d07b0be030e63ccc7da6c6",
      "to": "0xf32a3225869f494ce90c07bea755a24aa2182479",
      "contractAddress": null
    }
  ],
  "libraries": [],
  "pending": [],
  "returns": {},
  "timestamp": 1735188254,
  "chain": 25925,
  "commit": "7987c50"
}