{
  "transactions": [
    {
      "hash": "0xa00263d15f1fdaebb092404fbc3b8e7b1516d907dbbc41a5a8893ae3df549aea",
      "transactionType": "CALL",
      "contractName": null,
      "contractAddress": "0xf32a3225869f494ce90c07bea755a24aa2182479",
      "function": "setKYCLevel(address,uint256)",
      "arguments": [
        "0x2Da1bC2AE2F97E6d38050d1c750A646dd85fDDBE",
        "2"
      ],
      "transaction": {
        "from": "0xc1951ef408265a3b90d07b0be030e63ccc7da6c6",
        "to": "0xf32a3225869f494ce90c07bea755a24aa2182479",
        "gas": "0xfb8e",
        "value": "0x0",
        "input": "0x0c6b4b4f0000000000000000000000002da1bc2ae2f97e6d38050d1c750a646dd85fddbe0000000000000000000000000000000000000000000000000000000000000002",
        "nonce": "0xcdf",
        "chainId": "0x6545"
      },
      "additionalContracts": [],
      "isFixedGasLimit": false
    }
  ],
  "receipts": [
    {
      "status": "0x1",
      "cumulativeGasUsed": "0xa3cd",
      "logs": [],
      "logsBloom": "0x00000000000000000000000000000000000000000000000000000000000000000000000000000000000000000000000000000000000000000000000000000000000000000000000000000000000000000000000000000000000000000000000000000000000000000000000000000000000000000000000000000000000000000000000000000000000000000000000000000000000000000000000000000000000000000000000000000000000000000000000000000000000000000000000000000000000000000000000000000000000000000000000000000000000000000000000000000000000000000000000000000000000000000000000000000000",
      "type": "0x0",
      "transactionHash": "0xa00263d15f1fdaebb092404fbc3b8e7b1516d907dbbc41a5a8893ae3df549aea",
      "transactionIndex": "0x0",
      "blockHash": "0x6b4ae98e04c17c5c185b80a96752ec4d005b83dd06fba08305877bf2396520ab",
      "blockNumber": "0x1487b95",
      "gasUsed": "0xa3cd",
      "effectiveGasPrice": "0x5d21dba00",
      "from": "0xc1951ef408265a3b90d07b0be030e63ccc7da6c6",
      "to": "0xf32a3225869f494ce90c07bea755a24aa2182479",
      "contractAddress": null
    }
  ],
  "libraries": [],
  "pending": [],
  "returns": {},
  "timestamp": 1740586942,
  "chain": 25925,
  "commit": "41006ed"
}